:020000040800F2
:1000000000C00020254E0008814D0008834D0008E7
:10001000854D0008874D0008894D0008000000004C
:100020000000000000000000000000008B4D0008F0
:100030008D4D0008000000008F4D0008914D000814
:100040006D4E00086D4E00086D4E00086D4E0008A4
:100050006D4E00086D4E00086D4E00086D4E000894
:100060006D4E00086D4E00086D4E00086D4E000884
:100070006D4E00086D4E00086D4E00086D4E000874
:100080006D4E00086D4E00086D4E00086D4E000864
:100090006D4E00086D4E00086D4E00089F4D000823
:1000A000000000006D4E00086D4E00086D4E000807
:1000B0006D4E00086D4E00086D4E00086D4E000834
:1000C0006D4E00086D4E00086D4E00086D4E000824
:1000D0006D4E00086D4E00086D4E00086D4E000814
:1000E000C74D00086D4E00086D4E00086D4E0008AB
:1000F000D14D00086D4E00086D4E00086D4E000891
:100100006D4E00086D4E00086D4E00086D4E0008E3
:100110006D4E00086D4E00086D4E00080000000096
:100120006D4E00080000000000000000000000000C
:0C01300000000000000000005FF808F173
:1001400010B5054C237833B9044B13B10448AFF311
:1001500000800123237010BD780000200000000003
:100160004C57000808B5034B1BB103490348AFF3D4
:10017000008008BD000000007C0000204C570008F3
:1001800081F0004102E000BF83F0004330B54FEA48
:1001900041044FEA430594EA050F08BF90EA020FB5
:1001A0001FBF54EA000C55EA020C7FEA645C7FEA48
:1001B000655C00F0E2804FEA5454D4EB5555B8BF6B
:1001C0006D420CDD2C4480EA020281EA030382EADC
:1001D000000083EA010180EA020281EA0303362D6E
:1001E00088BF30BD11F0004F4FEA01314FF4801C41
:1001F0004CEA113102D0404261EB410113F0004F53
:100200004FEA03334CEA133302D0524263EB430309
:1002100094EA050F00F0A780A4F10104D5F1200EA7
:100220000DDB02FA0EFC22FA05F2801841F1000102
:1002300003FA0EF2801843FA05F359410EE0A5F1D6
:1002400020050EF1200E012A03FA0EFC28BF4CF007
:10025000020C43FA05F3C01851EBE37101F00045BD
:1002600007D54FF0000EDCF1000C7EEB00006EEBCA
:100270000101B1F5801F1BD3B1F5001F0CD3490854
:100280005FEA30004FEA3C0C04F101044FEA4452AB
:1002900012F5800F80F09A80BCF1004F08BF5FEA32
:1002A000500C50F1000041EB045141EA050130BD12
:1002B0005FEA4C0C404141EB010111F4801FA4F1B5
:1002C0000104E9D191F0000F04BF01460020B1FA0A
:1002D00081F308BF2033A3F10B03B3F120020CDA42
:1002E0000C3208DD02F1140CC2F10C0201FA0CF020
:1002F00021FA02F10CE002F11402D8BFC2F1200C85
:1003000001FA02F120FA0CFCDCBF41EA0C0190403A
:10031000E41AA2BF01EB0451294330BD6FEA040483
:100320001F3C1CDA0C340EDC04F11404C4F120026E
:1003300020FA04F001FA02F340EA030021FA04F380
:1003400045EA030130BDC4F10C04C4F1200220FAD7
:1003500002F001FA04F340EA0300294630BD21FA15
:1003600004F0294630BD94F0000F83F4801306BFDB
:1003700081F480110134013D4EE77FEA645C18BFCF
:100380007FEA655C29D094EA050F08BF90EA020F66
:1003900005D054EA000C04BF1946104630BD91EA5E
:1003A000030F1EBF0021002030BD5FEA545C05D161
:1003B0004000494128BF41F0004130BD14F58004A0
:1003C0003CBF01F5801130BD01F0004545F0FE4114
:1003D00041F470014FF0000030BD7FEA645C1ABF49
:1003E000194610467FEA655C1CBF0B46024650EA80
:1003F000013406BF52EA033591EA030F41F40021AC
:1004000030BD00BF90F0000F04BF0021704730B531
:100410004FF4806404F132044FF000054FF0000106
:1004200050E700BF90F0000F04BF0021704730B5C7
:100430004FF4806404F1320410F0004548BF40429C
:100440004FF000013EE700BF42004FEAE2014FEAF1
:1004500031014FEA02701FBF12F07F4393F07F4FCC
:1004600081F06051704792F0000F14BF93F07F4FFE
:10047000704730B54FF4607401F0004521F0004141
:1004800020E700BF50EA010208BF704730B54FF0C7
:1004900000050AE050EA010208BF704730B511F0CC
:1004A000004502D5404261EB41014FF4806404F104
:1004B00032045FEA915C3FF4DCAE4FF003025FEA86
:1004C000DC0C18BF03325FEADC0C18BF033202EB0E
:1004D000DC02C2F1200300FA03FC20FA02F001FA68
:1004E00003FE40EA0E0021FA02F11444C1E600BF07
:1004F00070B54FF0FF0C4CF4E06C1CEA11541DBFBA
:100500001CEA135594EA0C0F95EA0C0F00F0DEF884
:100510002C4481EA030621EA4C5123EA4C5350EA69
:10052000013518BF52EA033541F4801143F48013BA
:1005300038D0A0FB02CE4FF00005E1FB02E506F04B
:100540000042E0FB03E54FF00006E1FB03569CF0A0
:10055000000F18BF4EF0010EA4F1FF04B6F5007FA6
:1005600064F5407404D25FEA4E0E6D4146EB060618
:1005700042EAC62141EA55514FEAC52040EA5E50A1
:100580004FEACE2EB4F1FD0C88BFBCF5E06F1ED84B
:10059000BEF1004F08BF5FEA500E50F1000041EB82
:1005A000045170BD06F0004646EA010140EA02002F
:1005B00081EA0301B4EB5C04C2BFD4EB0C0541EA51
:1005C000045170BD41F480114FF0000E013C00F366
:1005D000AB8014F1360FDEBF002001F0004170BD8A
:1005E000C4F10004203C35DA0C341BDC04F11404A3
:1005F000C4F1200500FA05F320FA04F001FA05F22F
:1006000040EA020001F0004221F0004110EBD370FB
:1006100021FA04F642EB06015EEA430E08BF20EA27
:10062000D37070BDC4F10C04C4F1200500FA04F3CA
:1006300020FA05F001FA04F240EA020001F000415C
:1006400010EBD37041F100015EEA430E08BF20EACF
:10065000D37070BDC4F1200500FA05F24EEA020E17
:1006600020FA04F301FA05F243EA020321FA04F046
:1006700001F0004121FA04F220EA020000EBD370FD
:100680005EEA430E08BF20EAD37070BD94F0000FFD
:100690000FD101F00046400041EB010111F4801F31
:1006A00008BF013CF7D041EA060195F0000F18BFE2
:1006B000704703F00046520043EB030313F4801F1E
:1006C00008BF013DF7D043EA0603704794EA0C0FD8
:1006D0000CEA135518BF95EA0C0F0CD050EA4106EE
:1006E00018BF52EA4306D1D181EA030101F000416B
:1006F0004FF0000070BD50EA410606BF1046194693
:1007000052EA430619D094EA0C0F02D150EA01369E
:1007100013D195EA0C0F05D152EA03361CBF1046DF
:1007200019460AD181EA030101F0004141F0FE417E
:1007300041F470014FF0000070BD41F0FE4141F402
:10074000780170BD70B54FF0FF0C4CF4E06C1CEA02
:1007500011541DBF1CEA135594EA0C0F95EA0C0FB7
:1007600000F0A7F8A4EB050481EA030E52EA033572
:100770004FEA013100F088804FEA03334FF0805593
:1007800045EA131343EA12634FEA022245EA1115C0
:1007900045EA10654FEA00260EF000419D4208BF71
:1007A000964244F1FD0404F5407402D25B084FEA1E
:1007B0003202B61A65EB03055B084FEA32024FF4CA
:1007C00080104FF4002CB6EB020E75EB030E22BF27
:1007D000B61A754640EA0C005B084FEA3202B6EBE7
:1007E000020E75EB030E22BFB61A754640EA5C0096
:1007F0005B084FEA3202B6EB020E75EB030E22BF26
:10080000B61A754640EA9C005B084FEA3202B6EB26
:10081000020E75EB030E22BFB61A754640EADC00E5
:1008200055EA060E18D04FEA051545EA16754FEA47
:1008300006164FEAC30343EA52734FEAC2025FEA65
:100840001C1CC0D111F4801F0BD141EA00014FF0F4
:1008500000004FF0004CB6E711F4801F04BF0143C5
:100860000020B4F1FD0C88BFBCF5E06F3FF6AFAEE1
:10087000B5EB030C04BFB6EB020C5FEA500C50F171
:10088000000041EB045170BD0EF0004E4EEA1131F4
:1008900014EB5C04C2BFD4EB0C0541EA045170BDFB
:1008A00041F480114FF0000E013C90E645EA060E3F
:1008B0008DE60CEA135594EA0C0F08BF95EA0C0F6D
:1008C0003FF43BAF94EA0C0F0AD150EA01347FF4B5
:1008D00034AF95EA0C0F7FF425AF104619462CE78C
:1008E00095EA0C0F06D152EA03353FF4FDAE1046EF
:1008F000194622E750EA410618BF52EA43067FF440
:10090000C5AE50EA41047FF40DAF52EA43057FF4CF
:10091000EBAE12E74FEA4102B2F1E04324BFB3F578
:10092000001CDCF1FE5C0DD901F0004C4FEAC00266
:100930004CEA5070B2F1004F40EB830008BF20F04A
:100940000100704711F0804F21D113F13872BCBF04
:1009500001F00040704741F480114FEA5252C2F159
:100960001802C2F1200C10FA0CF320FA02F018BFA2
:1009700040F001004FEAC1234FEAD32303FA0CFCF5
:1009800040EA0C0023FA02F34FEA4303CCE77FEA84
:10099000625307D150EA01331EBF4FF0FE4040F4CE
:1009A0004000704701F0004040F0FE4040F400007D
:1009B000704700BF084B10B5044618684FF47A73AF
:1009C000B0FBF3F000F06EFA002221464FF0FF304A
:1009D00000F028FA002010BD0C00002008B503200C
:1009E00000F00EFA0020FFF7E5FF04F0DFF800202A
:1009F00008BD0000024A136801331360704700BF4E
:100A0000E0000020014B1868704700BFE0000020A4
:100A100013B50190FFF7F6FF0446FFF7F3FF019BC4
:100A2000001B9842F9D302B010BD0000F7B5044690
:100A300008B9012092E0C36C73B9036580F84830AF
:100A4000544B1A6A42F001021A621B6A03F0010356
:100A50000193019B04F0FAF8E36CDB06E9D4E36C44
:100A60004D4A23F4885323F0020343F00203E36466
:100A70005368616823F440330B4353604FF40070B4
:100A800090FAA0F00223B0FA80F0616A93FAA3F31F
:100A9000B3FA83F36569E26801FA03F32A43256A2E
:100AA0002A43E56B05FA00F002431343626B2569A4
:100AB000102A1CBFA06B0243206818BF13430268B2
:100AC00012F0400223D1A669E7693343A668B5F561
:100AD000807F46EA070643D0012D08BF4FF480729D
:100AE0003243E66A012E0DD100293BD14FF460411B
:100AF00091FAA1F1B1FA81F6216B42F40062013959
:100B0000B1400A434668254931400A434260816842
:100B1000234AB5F5807F02EA010242EA03028260BD
:100B200001D0012D27D1056B4FF0F87292FAA2F295
:100B3000B2FA82F1A26A013A8A4025F0F8710A43BA
:100B400002638168174A0A40934218D10020206549
:100B5000E36C23F0030343F00103E36403B0F0BD4F
:100B60002A46BDE7E16C41F02001E164216D41F0CE
:100B700001012165C6E7026B22F0F872E0E7E36C41
:100B800023F0120343F01003E364236D43F00103E9
:100B900023654EE70038024000270140FF16FCFCA9
:100BA00089F1FFC0FEFF80BF0368986D70470000A9
:100BB000002373B5019390F84830012B00F0A68014
:100BC00001234D6880F84830062D02684FEA8503FE
:100BD0000C6823D82B441F25166C053B9D4026EA44
:100BE000050504FA03F32B431364092C4FEA44036D
:100BF0008E6849D8072155692344994025EA0105A3
:100C000006FA03F32B435361A4F11003012B65D9BA
:100C1000002380F84830184602B070BD0C2D0BD868
:100C20002B441F25D66B233B9D4026EA050504FA7D
:100C300003F32B43D363D8E7122D0BD82B441F2586
:100C4000966B413B9D4026EA050504FA03F32B43CE
:100C50009363CAE7182D0BD82B441F25566B5F3BB7
:100C60009D4026EA050504FA03F32B435363BCE7D2
:100C70002B441F25166B7D3B9D4026EA050504FA93
:100C800003F32B431363B0E7132C0CD82344A3F1D5
:100C90001E0507231169AB4021EA030106FA05F599
:100CA0000D431561B0E71D2C0CD82344A3F13C0182
:100CB0000723D5688B4025EA030306FA01F119439F
:100CC000D160A1E707252344D16D5A3B9D4021EA1D
:100CD000050106FA03F30B43D36595E70C4B5A68FD
:100CE000120295D45A68102C42F400025A608FD137
:100CF000084B094A1B68B3FBF2F20A2353430193E2
:100D0000019B002B84D0019B013BF8E7022083E785
:100D1000002701400C00002040420F00002373B563
:100D20000193036804461A68520602D5002002B0F7
:100D300070BD9A6842F001029A60134B134A1B6817
:100D4000B3FBF2F303EB43030193019BC3B9FFF73A
:100D500059FE064623681D6815F04005E6D1FFF7E9
:100D600051FE801B0228F5D9E36C84F8485043F00B
:100D70001003E364236D012043F001032365D6E7EC
:100D8000019B013BE0E700BF0C00002040420F0048
:100D900090F8483010B5012B04462ED0012380F87E
:100DA0004830FFF7BBFF48BBE36C23F4E06323F05C
:100DB000010343F48073E36423685A68520541BF1A
:100DC000E26C22F4405242F48052E264E26C12F48B
:100DD00080521CBF226D22F006022265002284F898
:100DE00048206FF022021A609A6812F0405F05D125
:100DF0009A6842F080429A6010BD022010BD000047
:100E0000074A0002D36800F4E06023F4E0631B04A7
:100E10001B0C43F0BF6343F400330343D3607047BC
:100E200000ED00E0174B30B5DC68C4F30224C4F1D8
:100E30000703251D042B28BF0423062D4FF00105B1
:100E400098BF002405FA03F303F1FF3388BF033C86
:100E50001940A14005FA04F4013C2240002842EA6E
:100E600001024FEA0212AFBF00F16040064B00F0F2
:100E70000F00D2B2A5BFD2B200F561401A5480F87B
:100E8000002330BD00ED00E014ED00E00123420935
:100E900000F01F0003FA00F0014B43F822007047F6
:100EA00000E100E00138B0F1807F0AD2F021064B6A
:100EB000064A586082F823100020072298601A60C2
:100EC00070470120704700BF10E000E000ED00E037
:100ED000044B04281A680CBF42F0040222F00402FA
:100EE0001A60704710E000E0704708B5FFF7FCFF9C
:100EF00008BD000000232DE9F74FD1F80080DFF88E
:100F00009491624A38FA03F402D103B0BDE8F08F3D
:100F10004FF0010E0EFA03FE18EA0E0600F0A8804C
:100F20004C6824F01007022F16D14FF00F0C4FEA37
:100F3000D30A00EB8A0A03F0070BDAF820504FEAD5
:100F40008B0B0CFA0BFC25EA0C0C0D6905FA0BF562
:100F500045EA0C05CAF8205003254FEA430A05FA72
:100F60000AF5ED43D0F800B004F0030C0BEA050BD2
:100F70000CFA0AFC013F4CEA0B0C012FC0F800C030
:100F800011D8876807EA050BCF6807FA0AFC4CEA14
:100F90000B078760476827EA0E0EC4F300179F40CF
:100FA00047EA0E074760C7683D408F6807FA0AF7AF
:100FB0003D43C560E5005BD54FF00F0CD9F82050DC
:100FC00023F0030745F00105C9F82050D9F8205057
:100FD00007F1804705F00105019507F5803703F01B
:100FE000030E019D4FEA8E0ED7F808A00CFA0EF5FD
:100FF0002AEA050C264DA8423CD005F58065A8429A
:101000003AD005F58065A84238D005F58065A8423C
:1010100036D005F58065A84234D005F58065A84234
:1010200032D005F58065A84214BF0725062505FACC
:101030000EF545EA0C05BD60F743156814F4803FD2
:101040000CBF3D4035431560556814F4003F0CBF9C
:101050003D4035435560956814F4801F0CBF3D40FA
:1010600035439560D568A40254BF3D403543D560F3
:10107000013347E70025DAE70125D8E70225D6E75F
:101080000325D4E70425D2E70525D0E70004014075
:1010900000000240003802400AB181617047090433
:1010A000FBE7000008B5044B5969014202D05861C2
:1010B00003F0DAF908BD00BF000401401C4B82B008
:1010C0009A6812F0F00F0CD000221A490B6823F036
:1010D000010313430B60086800F00100504002B0A8
:1010E00070475A6A144912F0805F0FD00A6802F400
:1010F000C052B2F5C05FE7D1B0F5404FE4D10D4A20
:10110000136843F0040313600122DEE75A6A42F0D9
:1011100080525A625A6A02F080520192019A0A6819
:10112000596A02F4C05221F080515962E1E700BFD0
:1011300000380240003C02400070004003682DE986
:10114000F743D90704466AD423689A0700F1E6807A
:101150002368DE0655D5C14DAB6813F00C0F40F087
:1011600083814FF4007393FAA3F2296893FAA3F3EF
:10117000B3FA83F3012203F01F0302FA03F30B42D5
:1011800002D0A369002B6ED0B44D206A6B6803F4C3
:101190006043984240F24A81FFF790FF002862D1F5
:1011A0006B68226A23F4604313436B6069684FF0F5
:1011B0007F4393FAA3F3B3FA83F2E369934021F0F8
:1011C0007F4213436B604FF4604393FAA3F3B3FA87
:1011D00083F0A24BF0219A6891FAA1F1B1FA81F162
:1011E000236A02F0F002C340581C4FF40043CA4087
:1011F0009B4983408A5C0020D3409A4A1360FFF7E2
:10120000D9FB23681D0700F191812368580700F17D
:10121000D381626A002A40F05782002024E08F4B7D
:101220009A6802F00C02082A07D09A6802F00C02B1
:101230000C2A1CD19B68DB0319D54FF4003393FAB9
:10124000A3F2864A116893FAA3F3B3FA83F3012257
:1012500003F01F0302FA03F30B423FF475AF636818
:10126000002B7FF471AF012003B0BDE8F083636809
:101270007A4D012B20D12B6843F480332B60FFF78C
:10128000C1FB4FF4003580460126744F95FAA5F353
:101290003A6895FAA5F3B3FA83F303F01F0306FA4D
:1012A00003F313427FF450AFFFF7ACFBA0EB080051
:1012B0006428EBD90320D7E713BB2B684FF4003623
:1012C00023F480332B602B68012723F480232B60C9
:1012D000FFF798FB804696FAA6F32A6896FAA6F3DB
:1012E000B3FA83F303F01F0307FA03F313423FF447
:1012F0002BAFFFF787FBA0EB08006428EBD9D9E7F9
:10130000052B2B6803D143F480232B60B3E723F430
:1013100080332B602B6823F48023AFE74F4B9A6810
:1013200002F00C02042A07D09A6802F00C020C2A80
:1013300024D19B68DF0321D4022393FAA3F2474A06
:10134000106893FAA3F3B3FA83F3012103F01F03A8
:1013500001FA03F30342134602D0E2688A4282D1C3
:1013600058684FF4F85292FAA2F2B2FA82F1226966
:101370008A4020F4F8510A435A60E9E6E268012500
:1013800082B395FAA5F3B3FA83F303F1845303F51B
:101390008E139B001D60FFF735FB022780462F4E02
:1013A00097FAA7F3326897FAA7F3B3FA83F303F037
:1013B0001F0305FA03F313420DD071684FF4F8537D
:1013C00093FAA3F3B3FA83F22369934021F4F8521A
:1013D00013437360BCE6FFF715FBA0EB080002287F
:1013E000DED967E795FAA5F3B3FA83F303F18453E3
:1013F00003F58E139B001A60FFF704FB022680465C
:10140000164F96FAA6F33A6896FAA6F3B3FA83F360
:1014100003F01F0305FA03F313423FF499AEFFF7FD
:10142000F1FAA0EB08000228EBD943E76B6823F43C
:10143000604303436B6069684FF07F4393FAA3F303
:10144000B3FA83F2E369934021F07F4213436B6068
:10145000FFF734FE00283FF4B6AE04E70038024040
:101460001C5900080C000020A2694FF48073002A68
:1014700037D093FAA3F3B3FA83F3012603F184532D
:1014800003F58E139B001E60FFF7BCFA4FF4007744
:10149000804697FAA7F32A6897FAA7F3B3FA83F37B
:1014A00003F01F0306FA03F3134213D06B68226A9A
:1014B00023F4604313436B6069684FF07F4393FAF2
:1014C000A3F3B3FA83F2E369934021F07F4213431D
:1014D0006B6096E6FFF796FAA0EB08000228D8D9D1
:1014E000E8E693FAA3F3B3FA83F303F1845303F525
:1014F0008E139B001A60FFF785FA4FF40076804642
:10150000012796FAA6F32A6896FAA6F3B3FA83F3AC
:1015100003F01F0307FA03F313423FF472AEFFF721
:1015200071FAA0EB08000228EBD9C3E66269012535
:10153000A94902B395FAA5F3B3FA83F30B449B00D0
:101540001D60FFF75FFA02268046A44F96FAA6F3C5
:101550007A6B96FAA6F3B3FA83F303F01F0305FA46
:1015600003F313427FF451AEFFF74CFAA0EB0800EF
:101570000228EBD99EE695FAA5F3B3FA83F30B4460
:101580009B001A60FFF73EFA02268046934F96FAB8
:10159000A6F37A6B96FAA6F3B3FA83F303F01F036C
:1015A00005FA03F313423FF430AEFFF72BFAA0EB3A
:1015B00008000228EBD97DE6884B5A6AD10034D462
:1015C00001265A6A42F080525A625B6A03F08053E5
:1015D0000193019B824D2B68DA0528D5A3687F4DC6
:1015E000012B34D16B6B43F480736B63FFF70AFA02
:1015F0004FF4007581460127DFF8E08195FAA5F3E5
:10160000D8F8342095FAA5F3B3FA83F303F01F0357
:1016100007FA03F313424ED0002E3FF4FAAD6F4A9F
:10162000536A23F080535362F3E50026D2E72B6818
:1016300043F480732B60FFF7E5F907462B68DB0561
:10164000CCD4FFF7DFF9C01B6428F7D932E623BBFF
:101650006B6B4FF4007723F480736B636B6B4FF00D
:10166000010823F480636B63FFF7CCF9814697FA96
:10167000A7F36A6B97FAA7F3B3FA83F303F01F0398
:1016800008FA03F31342C7D0FFF7BCF941F28833DD
:10169000A0EB09009842EAD90CE6052B6B6B03D14D
:1016A00043F480636B639DE723F480736B636B6B20
:1016B00023F4806399E7FFF7A5F941F28833A0EBA3
:1016C000090098429AD9F5E5444DAB6803F00C0344
:1016D0000C2B3FF4C8AD022A4FF0807356D193FA19
:1016E000A3F3B3FA83F3002203F1845303F58E13BB
:1016F0009B001A60FFF786F92E4680464FF0007770
:10170000012597FAA7F3326897FAA7F3B3FA83F3A0
:1017100003F01F0305FA03F3134230D1B268A36A42
:10172000E16A22F47D020B431343226B1343B3603F
:101730004FF0807393FAA3F3B3FA83F303F1845366
:1017400003F58E139B001D60FFF75CF94FF00074EA
:1017500007460125214E94FAA4F3326894FAA4F3C3
:10176000B3FA83F303F01F0305FA03F313427FF484
:1017700054ADFFF747F9C01B0228ECD99AE5FFF7F3
:1017800041F9A0EB08000228BBD993E593FAA3F333
:10179000B3FA83F3002203F1845303F58E139B0005
:1017A0001A60FFF72FF94FF000740746012694FAEC
:1017B000A4F32A6894FAA4F3B3FA83F303F01F03A3
:1017C00006FA03F313423FF428ADFFF71BF9C01BE1
:1017D0000228ECD96EE500BFA0C19110003802408C
:1017E000007000401E4910B58B6803F00C02082AF7
:1017F00005D00C2A05D0042A22D11A4810BD1A4857
:1018000010BD4FF4701292FAA2F2B2FA82F203F40F
:10181000701020FA02F21548845C4FF4400090FAF0
:10182000A0F0B0FA80F203F440008B68D040DB03F4
:101830004CBF0D4B0B4B01306343B3FBF0F010BDBD
:1018400048684FF4604393FAA3F3B3FA83F300F4C8
:101850006040D840431C4FF40040984010BD00BF8A
:10186000003802400024F40000366E0134590008AC
:101870006A4B2DE9F0411A68064602F001028A42DD
:101880000D4630D33268940740D4D00746D4634B1A
:101890001A6802F001029542C0F0AE80326851072A
:1018A00000F1B380130707D55D4A3169936823F4CB
:1018B000605343EAC1039360FFF794FF584BF02253
:1018C0009B6892FAA2F2B2FA82F203F0F003D340DC
:1018D000544AD35CD840544B18600020FFF76AF894
:1018E0000020BDE8F081012902BF1A6842F004021D
:1018F0001A601A6822F001020A431A601B6803F09A
:1019000001039942BED00120BDE8F0814449B0688E
:101910008B6823F0F00303438B60B6E7726840499D
:10192000022A0FD14FF4003393FAA3F0086893FA18
:10193000A3F3B3FA83F3012103F01F0301FA03F3C6
:10194000034213E0032A02D14FF00073ECE7012AAF
:1019500029D1022393FAA3F0096893FAA3F3B3FA07
:1019600083F303F01F0302FA03F30B42CBD02C4C9A
:1019700041F28838A36823F003031A43A260FFF7FB
:1019800041F873680746022B10D1A36803F00C03DB
:10199000082B3FF47CAFFFF735F8C01B4045F4D966
:1019A0000320BDE8F0814FF40073BDE7032B0BD19A
:1019B000A36803F00C030C2B3FF469AFFFF722F888
:1019C000C01B4045F4D9EBE7012B10D1A36803F00D
:1019D0000C03042B3FF45BAFFFF714F8C01B40452A
:1019E000F4D9DDE7FFF70EF8C01B4045D8D8A3684F
:1019F00013F00C0FF6D14AE71A6822F001021A60C0
:101A00001B68DA073FF57FAF48E70549F0688B6848
:101A100023F4E06303438B6044E700BF003C0240D3
:101A2000003802401C5900080C000020014B1868C7
:101A3000704700BF0C000020084B4FF4E0629B6829
:101A400092FAA2F2B2FA82F203F4E063D340044ABB
:101A5000D35C044A1068D840704700BF0038024089
:101A60002C5900080C000020084B4FF460529B6872
:101A700092FAA2F2B2FA82F203F46053D340044A1B
:101A8000D35C044A1068D840704700BF0038024059
:101A90002C5900080C00002003685A6B12F0450F07
:101AA000FBD05A6B520703D5042203209A63704778
:101AB000586B10F0010015BF012040F2FF529863EF
:101AC0009A63704770B5436A86B01B0401930D2377
:101AD000029340230022054603934FF480630E4691
:101AE000006801A900920492059301F08FF828681C
:101AF000436B13F0450FFBD0436B5B0704D5042306
:101B00008363032006B070BD446B14F0010403D05E
:101B1000012383631846F5E701F08BF80D2801D007
:101B20001020EFE740F2FF522B6820469A6301F045
:101B300083F80090009B3348C3F343233370009B2A
:101B400018400028DED0009B002B39DB009B5D0095
:101B500038D4009B9C0037D4009BD90036D4009B1E
:101B60001A0135D4009B5B0134D4009BDE0133D4D1
:101B7000009B1D0232D4009B5C02D1D4009B9902D1
:101B80002ED4009BDA022DD4009B1B032CD4009B87
:101B90005E032BD4009B9D032AD4009BDC0329D435
:101BA000009B190428D4009B5A0427D4009B9B0453
:101BB00026D4009B13F0080F0CBF00201A20A1E7C9
:101BC0001C209FE709209DE70A209BE70B2099E74F
:101BD0000C2097E70D2095E70E2093E70F2091E763
:101BE00011208FE712208DE713208BE7142089E75F
:101BF000152087E7162085E7172083E7182081E75F
:101C000019207FE708E0FFFD70B50E460546006825
:101C1000436B13F0450FFBD0436B5B0703D50423E5
:101C20008363032070BD446B14F0010403D00123CF
:101C30008363184670BD00F0FCFFB04201D0102055
:101C400070BD40F2FF522B6820469A6300F0F4FF0B
:101C5000274B0340002BECD0002827DB450027D47E
:101C6000840027D4C10027D4020127D4430127D4FC
:101C7000C60127D4050227D44402E0D4810225D42A
:101C8000C20225D4030325D4460325D4850325D4D5
:101C9000C40325D4010425D4420425D4830425D4C7
:101CA00010F0080F0CBF00201A2070BD1C2070BD62
:101CB000092070BD0A2070BD0B2070BD0C2070BDC6
:101CC0000D2070BD0E2070BD0F2070BD112070BDA5
:101CD000122070BD132070BD142070BD152070BD82
:101CE000162070BD172070BD182070BD192070BD62
:101CF00008E0FFFD2DE9F043056A044681F85650DF
:101D0000436A012DA1F85430836A4FEA93720A7036
:101D1000C3F383624A70C3F301628A70C3F307425C
:101D2000CA70C3F30722DBB20A714B71C26A4FEA71
:101D300012634FEA0313CB80CB88C2F303509BB2EC
:101D400043EA0003CB80C2F303430B72C2F30723C1
:101D50004FEAD3104872C3F380108872C3F3401067
:101D6000C872C3F3001008734FF00000487300F20C
:101D7000DC8001269B0203F440630B610B69920037
:101D800002F47F721A430A610B69226B43EA927371
:101D90000B61C2F3C2630B75C2F302634B75C2F3EE
:101DA00042538B75C2F38243CB75D30B03F006030A
:101DB0000B760D7EC2F30723C2F3C0322A430A76A4
:101DC0000D690F7E0A7A023706FA02F2BE404FEA28
:101DD000E679A6FB02670A6502FB09776A1CA6FB87
:101DE000028902FB0799C1E91289C3F380125B00E3
:101DF00003F07E034A768B76236B8A7EC3F3C0158D
:101E00002A4303F07F038A76CB76636BDA0F0A7777
:101E1000C3F341724A77C3F382628A779A0D02F064
:101E20000C02CA77CA7FC3F381552A43CA77C3F32A
:101E3000405281F820200022012581F82120C3F39F
:101E4000004281F82220C3F3C03281F82320C3F37B
:101E5000803281F82420C3F3403281F82520C3F377
:101E6000003281F82620C3F3812281F82720C3F3B2
:101E70000122C3F3460381F8282081F8293081F834
:101E80002A50A36B1A0E81F82C20C3F307421202CA
:101E9000CA85CA8DC3F3072692B232431B06CA8590
:101EA0000B63E36B0A6B1E0E42EA06420A630E6B7B
:101EB0001A0A02F47F4232430A630E6BC3F307220D
:101EC0003243DBB20A6381F83430236C1A0E81F896
:101ED00035201A0C12068A638E6B1A0202F47F02F6
:101EE00032438A638A6B1B029BB213438B638A6BF8
:101EF000636C42EA13628A6391F83C20C3F3035493
:101F0000224381F83C201A0A02F47062CA87CA8F01
:101F1000C3F3072492B22243C3F34603CA8781F86E
:101F2000403081F84150BDE8F083022D1FD10027D9
:101F3000120402F47C12236B0A610A691D0E42EA44
:101F400005220A610D69C3F307422A430A610E693B
:101F5000C3F30723013647F10007FA0442EA563279
:101F6000CA644FF40072F6048E640A653DE72920C6
:101F70003BE700002DE9F04F002691B004460D46E6
:101F80008DF8126002F084FE76230D960F930E9664
:101F900010AB13E907008DE807000A960B960C9624
:101FA000A24F0AAB0ECB206800F004FE8DF8136040
:101FB00020683E6000F022FE0120FEF729FD01238B
:101FC0003B604FF4806305A9206809930596069647
:101FD0000796089600F01AFE4FF480322068436B93
:101FE000C3F3C01323B140F2FF538363002305E022
:101FF000436B013AC3F3C013F4D103238DF81330BC
:102000009DF813308BB19DF81330DBB28DF8123090
:102010009DF8123003F0FF06002B00F0B1809DF810
:102020001200C0B211B0BDE8F08F4FF4D573059324
:1020300008230693402305A9079300F0E7FD2068D5
:102040004FF48032436B13F0450F14BF012300237C
:102050000BB9002A7CD1436B12B113F004037FD07B
:102060000423836303238DF813309DF8132000238A
:10207000002A7CD101224FF080472262372605A931
:102080000593069600F0C2FD31462046FFF7BCFDE1
:102090008DF813009DF8133003F0FF06002BB2D12A
:1020A000B04647F0004747F480174FF0370B4FF02A
:1020B000400A4FF4806905A92068CDF81480CDF856
:1020C00018B0CDF81CA0CDF82080CDF8249000F0F9
:1020D0009DFD59462046FFF797FD8DF813009DF8AA
:1020E000133003F0FF02002B8DD1292305A92068AE
:1020F000089205970693CDF81CA0CDF8249000F027
:1021000085FD2268536B13F0450FFBD0536B13F022
:10211000040317BF042340F2FF519363032308BF56
:1021200091638DF813309DF8133003F0FF00002BFE
:102130007FF469AF00F080FD002806F101064FF63C
:10214000FF7316DB9E42B0D11B238DF813305AE784
:10215000436B013A13F0450F14BF0123002377E7C7
:10216000426B52064ABF4022292382637BE71F4607
:1021700084E79E42E8D0470044BF0223236242E73F
:10218000206800F03FFD002800F0BB80236A042B8C
:1021900021D002230693C02307934FF4806305A93F
:1021A000206805960896099300F030FD2046FFF759
:1021B00073FC064600284ED100F03EFDA0630420CB
:1021C00000F03AFDE063082000F036FD20640C20AA
:1021D00000F032FD6064236A022B29D9062B27D038
:1021E0000120236A042B00F0908009230693C0236A
:1021F00060620004059005A92068079300F006FDC1
:102200002046FFF749FC064628BB00F015FDA062FA
:10221000042000F011FDE062082000F00DFD2063B5
:102220000C2000F009FD606315E000BFA08025428E
:1022300003230693402305A92068079300F0E6FCDA
:102240002068436B13F0450FFBD0436B5E0736D518
:102250000423032683638DF812609DF81230002B4F
:102260007FF4DDAE29462046FFF744FD8DF81200CD
:102270009DF8123003F0FF02ABB9B5F854300725D2
:102280001B040593402307934FF4806305A920683E
:1022900008920993069500F0B9FC29462046FFF7FD
:1022A000B3FC8DF8120004F1100393E807008DE8E9
:1022B0000700231D0ECB206800F07CFCAFE6466BC8
:1022C00016F0010602D001268663C4E700F0B1FCD7
:1022D000032801D01026BEE740F2FF5223683046A3
:1022E0009A6300F0A9FC10F4604F01D1000C78E76C
:1022F000810408D44204EDD403047FF571AF0F26A6
:10230000A9E72526A7E71326A5E70026A3E700BF30
:10231000002330B587B04022044601930C25049376
:102320004FF4806301A9006803920593029500F0C1
:102330006DFC29462046FFF767FC07B030BD2DE94C
:10234000F04704461746002200688CB0C262226A39
:10235000DDF85080022A04BF7F0A47EAC3574FF0D6
:10236000400303934FF0000308BF4FF4007810269A
:1023700004934FF480630D4601A902960593DDF89E
:102380005490CDF8048000F041FC31462046FFF720
:102390003BFC0646002840F087804FF0FF33069351
:1023A00009FB08F307939023089302230993012361
:1023B0000A9006A920680B9300F04AFCB9F1010FBE
:1023C0008CBF1223112301A920680293019700F00A
:1023D0001DFCB9F1010F32D912212046FFF714FC80
:1023E000D8B940F22A3823685A6B12EA080F17D07E
:1023F00023685B6BDB0509D5B9F1010F06D9236AA8
:10240000022B03D82046FFF783FF064623685A6B4A
:10241000170730D5082204209A630CB0BDE8F08776
:102420005A6B1104E0D52F1F05F11C0A206800F03B
:10243000DDFB47F8040FBA45F8D12035D3E7112169
:102440002046FFF7E1FB0028E7D140F22A68236825
:102450005A6B12EA080FCBD15A6B1204F8D52F1F12
:1024600005F11C0A206800F0C1FB47F8040F57452E
:10247000F8D12035EBE75A6B900702D5022098631C
:10248000CBE75A6B910603D5202206209A63C4E756
:102490005A6B92050AD44FF0FF372068436B9B02BA
:1024A00009D440F2FF5383633046B6E74FF400721D
:1024B00007209A63B1E7002FF3D000F097FB013FAC
:1024C00045F8040BE9E72DE9F04F064617460022D0
:1024D00000688DB08DF80320C262326ADDF8589032
:1024E000022A04BF7F0A47EAC3574FF04003039311
:1024F0004FF0000308BF4FF40079102404934FF409
:1025000080630D4601A902940593DDF85C80CDF847
:10251000049000F07BFB21463046FFF775FB044634
:10252000002856D1B8F1010F8CBF1923182301A937
:1025300030680293019700F069FBB8F1010F8CBF7E
:10254000192118213046FFF75FFB0446002840D1CF
:102550004FF0FF33069390230893012308FB09F7FC
:1025600009900A9006A9306807970B9300F070FB5A
:10257000B8F1010F1BD840F21A6A33685A6B12EA9D
:102580000A0F1BD15A6B5204F8D53B1B1F2B50D896
:1025900013F0030F4FEA930318BF01334FEA830987
:1025A00005EB090B5D453ED14C445D46E5E740F245
:1025B0001A3A33685A6B12EA0A0F0ED033685B6B13
:1025C000D90541D433685A6B140747D5082204242F
:1025D0009A6320460DB0BDE8F08F5A6B5004E9D5E0
:1025E0003B1B1F2B14D813F0030F4FEA930318BFA4
:1025F00001334FEA830905EB090B5D4502D14C44D9
:102600005D46D6E72946306800F0F3FA0435F4E772
:1026100005F1200B29463068043500F0EAFAAB4595
:10262000F8D12034ECE72946306800F0E2FA0435AE
:10263000B8E705F1200B29463068043500F0D9FAD7
:10264000AB45F8D12034B0E7B8F1010FBAD9336AFD
:10265000022BB7D83046FFF75BFEB3E75A6B900703
:1026600002D502249C63B4E75A6BD10603D510222D
:1026700005249A63ADE75A6B920504D54FF40072B6
:1026800007249A63A5E740F2FF529A630DF1030114
:102690003046FFF717FA044600289AD19DF8033018
:1026A000063B012BF2D994E730B5436A87B01B048F
:1026B000019340230393002304460D2504934FF414
:1026C000806301A900680295059300F09FFA2946EE
:1026D0002046FFF799FA40B900F0AEFAC0F3432064
:1026E000043818BF012007B030BD0220FBE700000E
:1026F000B0F1804F03680ED01C4A90420BD002F517
:102700008062904207D002F58062904203D002F5C9
:102710007C42904216D14A6823F07003B0F1804F9A
:1027200043EA020315D0114A904212D002F58062AA
:1027300090420ED002F5806290420AD002F57C42AF
:10274000904206D00A4A904203D002F5806290423D
:1027500003D1CA6823F44073134303608B68C362D8
:102760000B68836201234361704700BF000400408F
:10277000000C014010B50446A0B190F8353003F0CC
:10278000FF021BB980F8342002F0B6FA0223206859
:1027900084F83530211DFFF7ABFF0123002084F8BA
:1027A000353010BD012010BD03680020DA6842F00A
:1027B0000102DA601A6842F001021A60704770473D
:1027C000704770477047036810B51A69044691074F
:1027D0000ED5DA6892070BD56FF002021A6101225A
:1027E0009B69027599075CD0FFF7EAFF0023237508
:1027F00023681A69520710D5DA6850070DD56FF0B3
:1028000004021A6102229B69227513F4407F20465C
:102810004DD0FFF7D5FF0023237523681A691107F0
:102820000FD5DA6812070CD56FF008021A6104227E
:10283000DB6922759B0720463FD0FFF7C1FF0023CD
:10284000237523681A69D00610D5DA68D1060DD52C
:102850006FF010021A610822DB69227513F4407FC1
:10286000204630D0FFF7ACFF0023237523681A6998
:10287000D20708D5DA68D00705D56FF001022046E7
:102880001A6101F099FF23681A69510608D5DA68C0
:10289000520605D56FF0400220461A61FFF792FFFD
:1028A00010BDFFF78CFF2046FFF78BFF9EE7FFF779
:1028B00086FF2046FFF785FFADE7FFF780FF204644
:1028C000FFF77FFFBBE7FFF77AFF2046FFF779FFAF
:1028D000CAE790F8343010B5012B4FF0020318D03E
:1028E00080F8353003680C685A68496822F0700235
:1028F0005A605A6822435A609A6822F080029A60AD
:102900009A680A439A60012380F83530002380F8E2
:102910003430184610BD00002DE9F04781460568A7
:10292000C2682B69C16923F4405313432B61836848
:102930000069EA680343D9F8140022F416420343FD
:1029400022F00C020B431343EB606B69D9F818209B
:1029500023F440731343B1F5004F6B617E4B7FD17D
:102960009D424FF0190447D1FFF77EF804FB00F3B6
:10297000D9F804704FF064087F00B3FBF7F3B3FBA2
:10298000F8F31F01FFF770F86043D9F804305B00DB
:10299000B0FBF3F6FFF768F86043D9F804305B004A
:1029A000B0FBF3F3B3FBF8F308FB1363DB00323344
:1029B000B3FBF8F35B0003F4F876FFF755F86043D8
:1029C000D9F804205200B0FBF2FAFFF74DF860434B
:1029D000D9F804305B00B0FBF3F3B3FBF8F308FB6A
:1029E00013A3DB003233B3FBF8F303F007033B44DC
:1029F0003344AB60BDE8F087FFF71EF804FB00F33B
:102A0000D9F804704FF064087F00B3FBF7F3B3FB11
:102A1000F8F31F01FFF710F86043D9F804305B00AA
:102A2000B0FBF3F6FFF708F86043D9F804305B0019
:102A3000B0FBF3F3B3FBF8F308FB1363DB003233B3
:102A4000B3FBF8F35B0003F4F876FEF7F5FF6043A1
:102A5000D9F804205200B0FBF2FAFEF7EDFFB6E71A
:102A60009D424FF0190443D1FEF7FEFF04FB00F333
:102A7000D9F804604FF06408B600B3FBF6F3B3FB7B
:102A8000F8F31E01FEF7F0FF6043D9F804309B0015
:102A9000B0FBF3F7FEF7E8FF6043D9F804309B0082
:102AA000B0FBF3F3B3FBF8F308FB13731B013233F2
:102AB000B3FBF8F303F0F007FEF7D6FF6043D9F855
:102AC00004209200B0FBF2FAFEF7CEFF6043D9F883
:102AD00004309B00B0FBF3F3B3FBF8F308FB13A344
:102AE0001B013233B3FBF8F303F00F033B437FE7E3
:102AF000FEF7A2FF04FB00F3D9F804604FF064086E
:102B0000B600B3FBF6F3B3FBF8F31E01FEF794FF38
:102B10006043D9F804309B00B0FBF3F7FEF78CFF5D
:102B20006043D9F804309B00B0FBF3F3B3FBF8F338
:102B300008FB13731B013233B3FBF8F303F0F00708
:102B4000FEF77AFF6043D9F804209200B0FBF2FA56
:102B5000FEF772FFBAE700BF0038014010B5044627
:102B600030B390F8393003F0FF021BB980F83820F9
:102B700002F0E0F80223226884F83930D368204656
:102B800023F40053D360FFF7C7FE236800201A69BF
:102B900022F490421A615A6922F02A025A61DA68D4
:102BA00042F40052DA600123E06384F8393010BD4A
:102BB000012010BD84B010B503AC84E80E00049968
:102BC000039B42680B43059922F4FD420B4306998F
:102BD00022F07F020B4307990B430899BDE8104090
:102BE0000B431343436004B000207047D0F88000CB
:102BF00070470B68C0F880300020704703230360E3
:102C000000207047006800F0030070470B6810B5A3
:102C100083608C684B68C2682343CC68096923438E
:102C200022F47F620B4322F00F021343C3600020A3
:102C300010BD0069C0B27047002382B00193034BFE
:102C400003440193019B186802B07047142C0140A3
:102C50000B6810B543624B68CC6883628B68C26AAC
:102C600023430C69496923430B4322F0F7021343C2
:102C7000C362002010BD0000034B1A1803EB800351
:102C80005B68107A5B681847B4000020064B1A5C3A
:102C900042B901221A541A1803EB80035B68107AB8
:102CA0001B68184700207047B400002030B4054C62
:102CB000251804EB800460688468287AA44630BC38
:102CC000604700BFB400002030B4054C251804EB69
:102CD00080046068C468287AA44630BC604700BF9E
:102CE000B400002010B4044B1C1803EB80035B6895
:102CF000207A1B6910BC1847B4000020012310B5CE
:102D0000054C237001F062F9234618B9227802F0CD
:102D1000FE022270187810BD00000020012310B5BB
:102D2000054C237001F08AF9234618B9227802F085
:102D3000FE022270187810BD0000002007B5019334
:102D40004FF40073520200930846002301F052F939
:102D5000003018BF012003B05DF804FB07B50193F4
:102D60004FF40073520200930846002301F054F917
:102D7000003018BF012003B05DF804FB10B5124B02
:102D800096B01B781446DB071CD4032903D8DFE870
:102D900001F00E051014042016B010BD684601F0B5
:102DA00053F9129B139A5B0A43EAC2532360002033
:102DB000F2E74FF400731380F9E74FF4007301203A
:102DC0001360E9E70320E7E70000002001380A4428
:102DD000914200D1704711F8013B00F8013FF7E73D
:102DE0000244904200D1704700F8011BF9E700004F
:102DF000F0B50024164A234616461568C5B1D0F82A
:102E00000072BD4215D15768D0F80852AF4210D1B8
:102E10001789B0F80652AF420BD1B9B90C2202FBA8
:102E200003635B89B3F5807F14BF00201020F0BDE1
:102E300001240133022B02F10C02DED10CB100207F
:102E4000F0BD02290CBF00201220F0BD1020F0BD03
:102E500098000020F0B5204C00232246D0F80062F4
:102E60002568B54209D16768D0F80852AF4204D14D
:102E70002789B0F80652AF4222D00133022B04F169
:102E80000C04EDD1136813B1D3681BBB01230C24D0
:102E90005C4315191651D0F80842B0F806026C6070
:102EA00028810020688191B90C2101FB0321498907
:102EB000013189B20C2000FB0322581C5181F0BD66
:102EC0000029F1D00C2101FB0321498911B94FF4EC
:102ED0008071EFE70020F0BD9800002030B5451E5E
:102EE000012D11D80C220A4902FB05135C8924F438
:102EF000807398B208B1013CA0B202FB05F3CA1876
:102F0000508118B9C85030BD022030BD002030BDFE
:102F100098000020D0F80022490A92F80222D0F846
:102F20002432B1FBF2F10433186830B1814202D38C
:102F3000091A0833F8E7586808447047026810B562
:102F400052B111460B4611F8014B202C0CD93A2CEA
:102F5000F8D1511C8B4202D04FF0FF3010BD1278D7
:102F6000302AF9D101330360002010BD08B590B1BB
:102F7000D0F800327BB193F8002262B1B3F80612A8
:102F8000B0F80422914206D193F80102FFF774FED3
:102F900010F0010000D0092008BDCA7E8B7E0328F6
:102FA00043EA022301BF487D0A7D42EA002243EA48
:102FB00002431846704770B5D0F82C5204460146BB
:102FC00001232A4690F80102FFF77EFED0B9D4F81B
:102FD0002032D4F81822EB1A934284F8040201D369
:102FE000002070BD94F80362012EF9D9D4F818328C
:102FF00021461D442A46012394F80102FFF764FE8E
:10300000013EF1E7012070BD90F804320BB1FFF7EB
:10301000D2BF1846704738B50446FFF7F5FF05469E
:10302000002854D194F80032032B47D194F805328C
:10303000012B43D101464FF400722046FFF7D0FE2A
:10304000552284F8FE21AA2284F8FF215222227000
:103050006270612241217220A27084F8E721D4F8C5
:103060001022E17084F8E611C2F3072184F8E82108
:1030700084F8E911110C120E84F8EB21D4F80C221B
:1030800084F8EA11C2F3072184F8EC2184F8ED11E9
:10309000110C120E84F8EF21D4F81C2284F8E401FC
:1030A000013284F8E50184F8EE11C4F82C2221469F
:1030B00094F80102FFF708FE84F80552002294F804
:1030C00001021146FFF70EFE003018BF012038BD87
:1030D000D0F82C3270B58B4206460D4613D0FFF760
:1030E00093FF044668B92A460123314696F8010247
:1030F000FFF7DCFD00281CBF4FF0FF350124C6F8A8
:103100002C52204670BD0024FBE70000002310B5C0
:1031100080F804324FF0FF33C0F82C320446FFF73A
:10312000D7FFC0B994F8FF2194F8FE3143EA022397
:103130004AF65522934210D1D4F83630084A23F08B
:103140007F4393420AD0D4F8520020F07F40801A87
:1031500018BF012010BD032010BD022010BD00BF0C
:10316000464154000023F0B5036085B00746084689
:103170001546FFF7E3FE061EC0F22081934B53F87D
:103180002640002C00F01C813C6094F8003273B1A2
:1031900094F80102FFF770FDC70708D4002D00F076
:1031A000118110F0040000D00A2005B0F0BD00230A
:1031B000F0B284F8003284F80102FFF767FDC1071E
:1031C00000F102810DB14207EED400212046FFF745
:1031D0009DFF012840F0D980002204F5E37111F829
:1031E000043C03B10B684DF822300132042A01F18E
:1031F0001001F4D100265DF82650002D00F0BC80AF
:1032000029462046FFF782FF002840F0B680227B47
:10321000E37A43EA0223B3F5007F40F0B980E37D0F
:10322000A17D207C51EA032108BF616A431E012B66
:10323000C4F8181284F8030200F2AA80667B84F8AE
:103240000262002E00F0A480731E334240F0A08082
:10325000A37C677C47EA03273B07A4F8087240F089
:103260009780227DE37C94F80FE053EA0223A27B4F
:1032700008BF236A52EA0E2200F08A8001FB00FE9A
:1032800002EB171070448342C0F082801B1AB3FB1C
:10329000F6F3002B7CD040F6F576B3427CD94FF69E
:1032A000F576B34294BF0226032602332A4428440B
:1032B000032EC4F81432C4F81C52C4F82022C4F8F7
:1032C00028026BD1002F63D1E26A9B00C4F824224C
:1032D00003F2FF13B1EB532F5AD34FF0FF33C4F86F
:1032E0001032C4F80C328023032E84F805322DD11D
:1032F00094F8312094F8303043EA0223012B25D191
:10330000691C2046FFF7E4FE00BB94F8FF2194F807
:10331000FE3184F8050243EA02234AF6552293421D
:1033200014D122682A4B9A4210D103F1FF53D4F8EA
:10333000E42103F5005320339A4201BFD4F8E83169
:10334000C4F81032D4F8EC31C4F80C32214A84F8B5
:1033500000621388002001339BB21380A4F8063268
:103360001D4B1A68944204BF00221A60DA68944226
:103370007FF41BAFD86018E702200136042E7FF4DB
:103380003AAF032804D101200FE70328FBD008B18E
:103390000D200AE705463AE7012686E7002FF7D019
:1033A0007244022EC4F824224FEA43021BBFD218F3
:1033B00003F00103134603EB520389E70B20F4E605
:1033C0000C20F2E62846F0E60320EEE6940000200A
:1033D00052526141B000002098000020D0F8143211
:1033E0000239023B99423DBF90F80232D0F82802E0
:1033F00001FB0300002070470129F8B506460D4681
:1034000059D9D0F81432994255D290F80032022B93
:1034100027D0032B36D0012B4DD101EB5104D0F82E
:10342000201201EB5421FFF753FE10B14FF0FF3093
:10343000F8BDD6F82012671C01EB5721C4F308042D
:103440003046345DFFF744FE0028EFD1C7F308078C
:10345000F05DEB0744EA00204CBF0009C0F30B000D
:10346000F8BDD0F8201201EB1521FFF731FE00283E
:10347000DCD16D0005F4FF7573195B78705D40EA6F
:103480000320F8BDD0F8201201EBD511FFF720FE84
:103490000028CBD1AD0005F4FE7573199878DA7861
:1034A000000440EA0260725D5B78104340EA03204A
:1034B00020F07040F8BD0120F8BD70B50446D0F88A
:1034C00008220D46012AA4F8061201D1022070BD7F
:1034D000D0F80032D3F814128A42F7D2F2B993F836
:1034E0000012032902D1D3F82412C1B9B3F808128B
:1034F0008D42EBD2D3F82402C4F80C220028E5D088
:10350000D4F8003200EB151005F00F0503EB45155C
:10351000C4F81002C4F81452002070BD11460A46C7
:1035200093F802623601B5421146D4F8000202D285
:10353000FFF754FFE0E7FFF75FFF431C024609D0A7
:103540000128C3D9D4F80032D3F814329842BDD23E
:10355000AD1BE8E7012070BD01292DE9F0410546CA
:103560000C4616466FD9D0F8143299426BD290F8B7
:103570000032022B3DD0032B4BD0012B63D101EB4A
:103580005107D0F8201201EB5721FFF7A1FD0028C9
:103590005AD114F0010407F10108C7F3080717BF57
:1035A000EB5DF3B203F00F0233011CBF03F0F00335
:1035B0001343EB550123D5F8201285F8043201EBB3
:1035C00058212846FFF784FDF0BBC8F3080844B132
:1035D000C6F3071205F80820012385F80432BDE878
:1035E000F08115F80820C6F3032622F00F023243BB
:1035F000F0E7D0F8201201EB1421FFF769FD18BBAA
:10360000640004F4FF742E55C6F307222C44627044
:10361000E2E7D0F8201201EBD411FFF759FD98B979
:10362000A40004F4FE742919CB781B0603F0704340
:1036300043EA0602C2F307232A554B70130C120EFD
:103640008B70CA70C8E70220BDE8F081F8B5054666
:103650000F4689B9D0F80C62FEB1D0F814329E4200
:1036600028BF01263446D5F8143201349C4217D3C2
:10367000012E14D8002408E0FFF7BEFE01280446FE
:103680003BD9013003D14FF0FF342046F8BDD5F8C7
:1036900014329C42F9D33E46E4E70126E2E70224D5
:1036A00021462846FFF7A8FE30B1411CEBD0012887
:1036B00023D0B442D7D1DDE76FF0704221462846CF
:1036C000FFF74AFFB8B97FB9D5F81032C5F80C42F8
:1036D0005A1CDAD0013BC5F8103295F8053243F098
:1036E000010385F80532D0E7224639462846FFF720
:1036F00033FF0028E8D00128C5D00124C5E72DE913
:10370000F843B0F8066204460136B3B2894613B9ED
:103710000420BDE8F883D0F81032002BF8D016F062
:103720000F080BD1D0F80C120133C0F81032D0F8CA
:10373000000271B9B0F808329E42E9D2D4F80032E2
:10374000A4F8066203EB4813C4F814320020BDE865
:10375000F88390F80272013F17EA1617EED1FFF7CF
:103760004BFE0128054602D80220BDE8F883421C22
:1037700002D10120BDE8F883D4F80002D0F8143259
:103780009D422FD3B9F1000FC2D0D4F80C12FFF72D
:103790005DFF054600283ED00128E5D0431CE8D057
:1037A000D4F80002FFF730FC01460028E1D14FF4C5
:1037B0000072D4F80002FFF713FBD4F80022294668
:1037C0001046FFF70BFE4FF00109C2F82C02D4F8A7
:1037D000000290F802329F420ED3D0F82C32DF1B49
:1037E000C0F82C72C4F80C522946D4F80002FFF736
:1037F000F5FDC4F81002A1E780F80492FFF7DBFBA7
:103800000028B6D1D4F800220137D2F82C32013387
:10381000C2F82C32DBE70720BDE8F8832DE9F84336
:103820000B7804462F2B0D4601D05C2B00D10135BF
:103830000026C4F808622B781F2B36D95F4E2B78F0
:10384000A8462F2B05F10105F9D05C2BF7D0D4F851
:1038500018720B2220213846FFF7C2FA4FF0000EF3
:103860000821F446724608F1FF3919F8013F0CF1BE
:10387000010C202B28D92F2B26D05C2B24D02E2BCB
:1038800000F0858071450DD9180644BF803BF35C7C
:103890004B4D48BF42F0030215F8010F00287DD0C0
:1038A0008342F9D10620BDE8F88331462046FFF770
:1038B00004FEC4F81462BDE8F88342F0020207F87F
:1038C0000E300EF1010ED0E7212B08EB0C0534BFB2
:1038D00004230023BEF1000FE4D03878E52804BFAC
:1038E00005203870082904BF9200D2B202F003010B
:1038F000012902F00C0208BF43F01003042A08BF9C
:1039000043F00803FB7200212046FFF7D6FDF8B90B
:10391000D4F81012D4F80002FFF7DAFBC0B9D4F8DB
:10392000142213789BB1D37A19070BD4D4F8183228
:1039300003F10B0E73450BD012F8017B13F8011B3A
:103940008F42F7D000212046FFF7D9FEDFE70420A1
:10395000D4F81832DB7A38B104282CD113F0040FD4
:1039600008BF0520BDE8F8835A0724D4D4F8141200
:10397000CB7ADB0608D5D4F8003293F80002FFF7C3
:103980000CFBC4F808025AE70520BDE8F8830829B3
:1039900088D192008E46D2B20B2166E7A3F1410096
:1039A00019288AD9A3F1610019289EBF203B42F053
:1039B0000102DBB283E7BDE8F88300BF845700084B
:1039C0000358000838B500210546FFF776FD044688
:1039D00078BBD5F81012D5F80002FFF779FB044642
:1039E00038BBD5F814321B78E52B1BD1D5F8101253
:1039F000D5F80002FFF76CFB044688B90146202287
:103A0000D5F81402FFF7ECF90B22D5F81812D5F807
:103A10001402FFF7DBF90122D5F8003283F8042203
:103A2000204638BD002BE1D001212846FFF767FE74
:103A3000CDE7042C08BF0724F2E7012970B504463E
:103A40000D4601D8022070BDD0F814329942F9D247
:103A5000D4F814329D4205D229462046FFF7CCFC0B
:103A6000064608B9002070BD0128EBD0411C14D0D7
:103A7000002229462046FFF76FFD78B9D4F81032AE
:103A80005A1C08D00133C4F8103294F8053243F0C0
:103A9000010384F805323546DAE7012070BD0000E5
:103AA0007FB5019004A840F8041D00911646FFF769
:103AB00045FA051E21DB134951F8254064B1124B2C
:103AC00000201A6884F80002944204BF00221A60A1
:103AD000DA68944208BFD860019810B1002380F8DA
:103AE000003241F8250030B1012E08D1002269468C
:103AF00001A8FFF737FB04B070BD0B20FBE70020E7
:103B0000F9E700BF94000020980000202DE9F04361
:103B1000ADF50F7D019190460546002800F0A68086
:103B2000002302F01E02C0F8003201A986A8FFF7A8
:103B300019FB0646002840F0948003AB019906A8C3
:103B40008C93FFF76BFE08F01F078B9C48B9002C85
:103B50005BD017F01E0F14BF0121002106A8FFF74C
:103B600047F918F01C0F5BD0002850D004284AD128
:103B7000514B1A681AB1DB68002B40F09B8006A8F5
:103B8000FFF720FF00283ED18B9C47F008073B073A
:103B900050D500F08DFA4FF00008C0F30723A07352
:103BA000E373030C000E84F80B8084F81C8084F807
:103BB0001D8084F81E8084F81F8023746074869BA7
:103BC000214693F80002FFF7E8F9012284F81A80F1
:103BD00084F81B8084F8148084F81580869B8046C6
:103BE00083F8042230B301461846D3F82C92FFF72D
:103BF00024FF40B9869808F1FF33C0F80C324946DB
:103C0000FFF766FAB0B106462BE00620A9E7E37A93
:103C100013F0110F2ED118F0040FB8D0082620E0B1
:103C20000028F0D1E37AD80622D418F0020F01D090
:103C3000DA071FD43B07869B48BF47F02007D3F81D
:103C40002C3217F0FE0FC5F81C32C5F8204214BF05
:103C50000121002106A8FFF7FDF8C5F8280258B990
:103C6000022630460DF50F7DBDE8F0830926F8E702
:103C70000426F6E70726F4E785F806720027DDF844
:103C8000188285F8077298F800022146FFF785F937
:103C9000C5F81002E369C5F80872C5F80C32B8F827
:103CA0000632C5F81872C5F82472C5F80082A5F866
:103CB0000432D6E71220A6E7980000202DE9F74F3E
:103CC0009B460023CBF80030044689461746FFF791
:103CD0004DF9064650BB94F80732002B40F0DA80CD
:103CE00094F80632990740F1D780D4F80832DF42C1
:103CF000C0F08480D4F80832D4F80C22934200F249
:103D0000C68094F8063243F0200384F806320DE0B2
:103D1000D4F8243273B12046FFF7FCF8014600289E
:103D2000E8D0012909D1022684F80762304603B0A1
:103D3000BDE8F08FD4F814127BE04A1C01D10126B3
:103D4000F2E7D4F81032C4F814120BB9C4F8101208
:103D500094F806325B0611D5D4F800020123D4F89A
:103D60001822214690F80102FEF7AEFF0028E6D1A6
:103D700094F8063223F0400384F80632D4F800A207
:103D8000D4F814125046FFF729FB0028CBD0019B32
:103D90007D0A00EB03084FD0019A9AF802322A44B8
:103DA0009A4288BF019A494688BF9D1A2B464246CF
:103DB0009AF80102FEF788FF0028C0D1D4F8181243
:103DC000A1EB08018D420CD94FF4007209EB41219F
:103DD0002046FEF7FBFF94F8063223F0400384F8F8
:103DE00006326D02D4F80832A9442B44C4F80832D4
:103DF000DBF800307F1B2B44CBF80030002F3FF462
:103E000079AFD4F80812C1F308035BBBD4F8000201
:103E100090F80232013B03EA512313F0FF030193B0
:103E200096D100297FF474AFD4F8101200297FF4E2
:103E300078AFFFF70BFC71E7D4F8183298450FD034
:103E4000D4F80822D4F80C329A4209D2012342460F
:103E500021469AF80102FEF729FF00287FF46FAF90
:103E6000C4F81882D4F808024946C0F30800C0F527
:103E70000075BD4228BF3D4620442A46FEF7A6FFF6
:103E800094F8063243F0400384F80632AAE7C4F8F7
:103E90000C3236E71E4649E7072647E770B5044669
:103EA000FFF764F8002858D194F806329A0654D5E2
:103EB0005B0611D5D4F800020123D4F8182221465C
:103EC00090F80102FEF700FF002845D194F8063271
:103ED00023F0400384F80632D4F81C12D4F8000210
:103EE000FFF7F6F80646C0BBD4F82052EB7A43F051
:103EF0002003EB72D4F80C322B77B4F80C321B0A87
:103F00006B77B4F80E32AB7794F80F32EB77D4F8C6
:103F10001032AB76C3F307221B0C2B751B0A6B7593
:103F2000EA7600F0C5F8C0F30723A875EB75030C1B
:103F3000000E2B766876AE74EE7494F80632D4F8E0
:103F4000000223F0200384F80632012380F80432B3
:103F5000BDE87040FFF75FB8012070BD10B50446A2
:103F6000FFF79CFF50B92046FFF700F830B9D4F8AE
:103F70002802FEF7B3FF08B9C4F8000210BD000024
:103F800030B50F4B5C7A012C18D800245D7AEDB265
:103F90005C555D7A03EB85056860587A18440272B7
:103FA0005A7AD2B2501CC0B258723A234B702F23A7
:103FB00030320A708B70CC70204630BD012030BD8D
:103FC000B40000200022FFF7DBBF000007B501208E
:103FD0008DF807009DF80730834203D10349044858
:103FE000FDF7C8FF03B05DF804FB00BF88050020A3
:103FF0005006002007B505990191049900910146EA
:104000000448FEF79CF9003018BF012003B05DF8AA
:1040100004FB00BF5006002007B5059901910499E3
:10402000009101460448FEF74EFA003018BF012007
:1040300003B05DF804FB00BF500600200148FEF706
:1040400033BB00BF5006002001460148FDF752BEB9
:10405000500600200D4BDA6822F08072DA60DA68D0
:1040600042F08072DA600A4B1A6822F001021A608C
:104070001A6842F001021A6000225A6000BF00BFB5
:1040800000BF5868B0FA80F040097047F0ED00E0DA
:10409000001000E008B503490348FFF793FF034B06
:1040A000187008BDE500002070570008E4000020EB
:1040B00000207047224A10B5136892B023F4C05311
:1040C00043F40063136013230593012306930893BD
:1040D0000B9300230C934FF420430D9302230E9374
:1040E0004FF480330F934FF48023102210934FF43A
:1040F000800305A809921193FDF720F8014600B14D
:10410000FEE70F230190029003900490684600930D
:10411000FDF7AEFB044600B1FEE7FDF787FC4FF468
:104120007A73B0FBF3F0FCF7BDFE0420FCF7D0FE81
:10413000224621464FF0FF30FCF774FE12B010BD4E
:10414000007000402DE980488BB0FCF747FCFFF77A
:10415000B1FFA74B48F2E011DA69A64842F0040229
:10416000DA61DA69002402F004020092009ADA6946
:10417000A14E42F02002DA61DA69012502F0200244
:104180000192019ADA6942F00102DA61DA6902F019
:1041900001020292029ADA6942F00202DA61DA69F5
:1041A00002F002020392039ADA6942F00802DA612D
:1041B000DB69002203F008030493049BFCF76CFF07
:1041C00000224FF607418D48FCF766FF0022C02110
:1041D0008B48FCF761FF4FF4005305A9884805930D
:1041E00006960794FCF786FE48F2E01305A981487D
:1041F0000593069507940894FCF77CFE4FF6074359
:1042000005A97E480593069507940894FCF772FE6D
:10421000C02305A97A480593069507940894FCF7EE
:1042200069FE4FF4C05305A972480593069407949C
:10423000FCF760FE4FF478730696102605A96F48C8
:1042400005930794FCF756FE224621461720FCF7FB
:10425000E9FD1720FCF71AFE214622462820FCF72C
:10426000E1FD2820FCF712FE664B674A9C6083E85C
:104270001400DC601C615C619E61FFF70BFF4FF472
:10428000E13362486249846080E80A000C23C4601C
:10429000046143618461C461FEF760FC00B1FEE724
:1042A0005C4C5D4B6060A060E06020616061A0617B
:1042B000E06120626062E062A063E0632046236008
:1042C000A5626663FCF7B2FB00B1FEE7042307902A
:1042D00005A9204605930695FCF76AFC00B1FEE7A8
:1042E0004FF403634D4C4E4AA06084E80C0040F24A
:1042F000E7332046E360FEF73DFA00B1FEE70590A4
:10430000069005A92046FEF7E4FA00B1FEE7204634
:10431000FEF74AFA2A4680213648FCF7BDFE3146B0
:10432000022000F0B1FB3F4E3F4A2946284600F0EC
:1043300003FC2A463D493E48FFF7B2FB3746346846
:10434000012CFDD13B4A2146204600F0F5FB3A4ABC
:104350002146022000F0F0FB384A05AB1068516896
:10436000128903C305A91A8035480A22FFF7CEFB3C
:1043700068B9344CDFF8E890A24641F28733D9F8A7
:10438000002021789A420ADD2D48FFF7E7FD012140
:104390002D4A084600F0D0FB00233B60CFE70C29F4
:1043A000F0D12A4B1A78012A19D14FF00008DFF812
:1043B000B4B083F800802649264B30222048FFF70E
:1043C0007DFCDBF80010012905D1234A084600F0E6
:1043D000B3FBCBF8008000238AF80030CDE71D70D6
:1043E00030221C4B1D491648FFF768FCF3E700BF5D
:1043F000003802400000024000001110000402409A
:104400000008024050060020002C0140E00500207A
:1044100000380140B00600200024014004070020BD
:1044200000140040C8000020BE580008E50000202D
:1044300054030020D0580008E358000864570008CF
:1044400020010020C100002007590008CC000020F6
:10445000F0000020C4000020F658000820060020CC
:104460005003002004000020B0F5005F10B511D10A
:104470000122A84B1A70A84B1A78013A062A00F2BA
:104480009181DFE812F01D003E004A0070008100BB
:10449000B0000301202801D10222EAE7402801D11F
:1044A0000322E6E7802801D10422E2E7B0F5807F0D
:1044B00001D10522DDE7B0F5007FDCD10622D8E787
:1044C000944A1278002A00F06D81022A02D9052A46
:1044D00013D010BD012102240846904A1C7000F040
:1044E0002BFB8E4A0121204600F026FB8C4A01213D
:1044F0000846BDE8104000F01FBB0122894B1A603E
:1045000010BD844A1278002A00F04C81022A40F241
:104510003B81052A00F08B8010BD7E4A1278033A59
:10452000032A00F23F8101A151F822F0D54400088E
:104530003D450008C94600083D4500080121042208
:1045400008461A70754A00F0F7FA744A01210220F1
:1045500000F0F2FA0121744A084600F0EDFA734ABD
:1045600001210220C5E76B4A1278033A032A00F2C0
:10457000198101A151F822F0D54400082F46000806
:10458000C94600082F460008624A1278013A052AF7
:1045900000F20881DFE812F0320085004B000600CF
:1045A000F8001F00624C23780133DBB2102B08BFE8
:1045B00001230121594A0846237000F0BDFA574AE9
:1045C0000121022000F0B8FA5A4A0121084600F001
:1045D000B3FA227825E0564C2378013B13F0FF0311
:1045E00008BF0F23E5E74B4A1278013A052A00F28B
:1045F000D980DFE802F069031C2FC943012107229B
:1046000008461A70454A00F097FA444A01210220F0
:1046100000F092FA0121484A084600F08DFA474B13
:104620001A780121BDE81040022000F0ABBA012148
:10463000032208461A70394A00F07EFA374A0121EF
:10464000022000F079FA0121374A084600F074FA96
:104650003B4A85E73B4C23780133DBB2042B08BF90
:10466000012301212D4A0846237000F065FA2B4AE8
:104670000121022000F060FA334AA6E7314C23788A
:10468000013B13F0FF0308BF0323EAE7214A127836
:10469000013A052A00F28680DFE802F00316295A63
:1046A000766E0121062208461A701C4A00F044FA70
:1046B0001A4A0121022000F03FFA0121224A08464D
:1046C00000F03AFA1F4BABE70121052208461A70A9
:1046D000124A00F031FA114A0121022000F02CFAAE
:1046E0000121144A084600F027FA114B98E70121EE
:1046F000032208461A70094A00F01EFA074A0121EF
:10470000022000F019FA0121074A084600F014FAC5
:104710000E4A25E7C00000200200002013580008C0
:1047200027580008C80000203F5800085D580008BE
:10473000010000206F580008855800080300002081
:104740004D5800080800002095580008A35800089C
:10475000154C23780133DBB2062B08BF012301215E
:10476000124A0846237000F0E7F9104A012102209E
:1047700000F0E2F90E4A28E70B4C2378013B13F0D6
:10478000FF0308BF0523EAE70124084A2146204623
:104790001C7000F0D1F9054A2146022000F0CCF946
:1047A000044AA4E610BD00BF03000020135800080F
:1047B00085580008BE58000838B50268224B9A4256
:1047C00029D1224B1B68012B25D12148FCF7E0FAA7
:1047D0001F48FCF7E9F91F4B1F4C18801F4B80B294
:1047E0001B782578C3B9FBF71DFE13A3D3E900237B
:1047F000FBF77EFE12A3D3E90023FBF7A3FFFCF730
:1048000089F8174B43F825002378164A01332370A3
:1048100013680133136038BDFBF704FE06A3D3E928
:104820000023FBF765FE06A3D3E90023FBF78AFF0D
:10483000FCF770F80C4BE5E76666666666660A404C
:104840000000000000FEAF4000140040C80000203F
:10485000B00600204C030020C1000020CC00002046
:10486000F0000020500300202006002037B5094C3E
:1048700001906568FDF7DAF8074A019BB0FBF2F09A
:10488000434301936368019A5B1B9342FAD303B0DD
:1048900030BD00BF001000E040420F002DE9F04F96
:1048A0004FF0800B00250127324B8BB0DA690AAE3E
:1048B00042F00202DA61DA69DFF8C0A002F0020217
:1048C0000392039ADA69504642F00402DA61DB6926
:1048D00046F814BD03F0040304933146049B069785
:1048E00007950895FCF706FB4FF400434FF48069E9
:1048F0004FF00408204C3146204605930193FCF705
:10490000F9FA31462046CDF81490FCF7F3FA314617
:104910002046CDF81480FCF7EDFA022331462046FC
:104920000593FCF7E7FA314620460597FCF7E2FAD3
:10493000019B2A4619462046FCF7AEFB2A465946FB
:104940005046FCF7A9FB2A4649462046FCF7A4FB43
:104950002A4641462046FCF79FFB2A462046022174
:10496000FCF79AFB2A4639462046FCF795FB0BB02C
:10497000BDE8F08F00380240000402400008024009
:1049800010B50A4C01224FF400412046FCF784FB8D
:104990000A20FFF76BFF204600224FF40041FCF78E
:1049A0007BFBBDE81040D220FFF760BF000402404F
:1049B00038B505460E4C00F0080201212046FCF7F0
:1049C0006BFB05F0040220460221FCF765FB05F0B5
:1049D000020220460421FCF75FFB05F0010220469D
:1049E0004FF48061FCF758FBBDE83840FFF7C8BFC3
:1049F0000004024010B50446002280210548FCF75F
:104A00004BFB2009FFF7D4FF04F00F00BDE8104076
:104A1000FFF7CEBF0008024008B50120FFF7EAFF0C
:104A2000BDE808400420FBF7F3BF0000044B1878F2
:104A300040F0040240F00C001A70FFF7DBBF00BF2B
:104A4000CD000020002382B08DF8043040238DF883
:104A5000053014238DF8063054230A4A8DF80730A8
:104A6000D3785171834298BF002002AB90711844F3
:104A700010F8040C014461F07F00C0B202B0FFF7EF
:104A8000B9BF00BFCD00002070B50E460546FFF748
:104A9000E1FA3220FBF7BCFFFFF700FF3220FBF703
:104AA000B7FF00231A4C012D6371A37188BF08233F
:104AB00003206370E5702671FFF77AFF0620FBF78D
:104AC000A7FF0320FFF774FF0520FBF7A1FF0320DA
:104AD000FFF76EFF0520FBF79BFF0220FFF768FF43
:104AE000D220FFF7C3FE607840F02000FFF782FF7E
:104AF00004232370FFF79AFFFFF78EFF022306209F
:104B0000A370FFF777FFBDE870400520FBF780BF7B
:104B1000CD00002010B50446012280210548FCF795
:104B2000BBFA2009FFF744FF04F00F00BDE8104076
:104B3000FFF73EBF000802400139013838B5C9B25D
:104B40001546C0B2FFF77EFF0D4C013D15F8010F71
:104B500000B938BD0A2807D1A07961790130C0B207
:104B6000A071FFF76FFFF1E70D2802D10021A079B6
:104B7000F7E7FFF7CFFF637901336371E6E700BF23
:104B8000CD00002030B504460D468FB01346642199
:104B9000054A01A800F090F901AA29462046FFF72E
:104BA000CBFF0FB030BD00BF195900081FB5264B11
:104BB00003205A6A42F000425A625A6A02F00042E6
:104BC0000192019A1A6A42F001021A621A6A02F00C
:104BD00001020292029A5A6A42F080525A625B6A59
:104BE00003F080530393039BFCF70AF900226FF054
:104BF0000B001146FCF716F900226FF00A0011466F
:104C0000FCF710F900226FF009001146FCF70AF9D1
:104C100000226FF004001146FCF704F900226FF047
:104C200003001146FCF7FEF800226FF00100114668
:104C3000FCF7F8F800224FF0FF301146FCF7F2F8CD
:104C400005B05DF804FB00BF003802407FB5026884
:104C50000D4B9A4214D103F58A331A6A01A942F422
:104C600000721A621B6A094803F400730093009BE8
:104C7000102301930323029300230393FCF73AF9D3
:104C800007B05DF804FB00BF0024014000000240B3
:104C9000F0B50268154B87B09A4224D103F58633EC
:104CA0001A6A022742F400621A621B6A002603F4A1
:104CB00000630093009B03254FF488530C2401A943
:104CC0000B4801930297039604950594FCF712F99B
:104CD000042308480DEB0301019302970396049502
:104CE0000594FCF707F907B0F0BD00BF002C0140A8
:104CF00000080240000C024007B50D4B02689A42C2
:104D000012D103F509335A6A2C2042F020025A626C
:104D100000225B6A114603F020030193019BFCF71C
:104D200081F82C20FCF7B2F803B05DF804FB00BF5B
:104D3000001400407FB502680F4B9A4219D103F569
:104D400080331A6A01A942F480421A621B6A0B4836
:104D500003F480430093009B4FF4C063019302234C
:104D60000293012303930323049307230593FCF782
:104D7000C1F807B05DF804FB0038014000000240B4
:104D80007047FEE7FEE7FEE7FEE7704770477047B3
:104D900008B5FBF72FFEBDE80840FCF7A6B808B53C
:104DA0002020FCF77FF94020FCF77CF98020FCF7FD
:104DB00079F94FF48070FCF775F9BDE808404FF4BD
:104DC0000070FCF76FB94FF40050FCF76BB90000AE
:104DD0000148FDF7F8BC00BF040700200E4B1A681D
:104DE00042F480721A6099680C4A0A409A601A6804
:104DF00022F0885222F001121A601A6822F48022EE
:104E00001A609A6822F47D029A600022DA604FF0FC
:104E10000062034B9A607047003802400CC0FF8864
:104E200000ED00E0002103E00B4B5B5843500431E0
:104E30000A480B4B42189A42F6D30A4A02E0002372
:104E400042F8043B084B9A42F9D3FFF7C7FF00F042
:104E50000FF8FFF777F97047785900080000002035
:104E6000740000207800002040070020FEE70000CA
:104E700070B500250C4E0D4CA41BA410A54209D101
:104E800000F064FC00250A4E0A4CA41BA410A542A5
:104E900005D170BD56F8253098470135EEE756F834
:104EA000253098470135F2E770590008705900081D
:104EB00070590008745900080CB430B5174B0C1E1B
:104EC0009DB01D6808DA8B234FF0FF302B601DB0BA
:104ED000BDE8304002B070474FF40273ADF81430B3
:104EE0000CBF234604F1FF33049307934FF6FF737F
:104EF00002900690ADF81630209A21AB02A9284600
:104F0000019300F069F8431CBCBF8B232B60002C7D
:104F1000DDD00022029B1A70D9E700BF10000020EC
:104F20002DE9F0478E6882469E420C46914698468F
:104F300035D88A8912F4906F31D002232568096927
:104F40006F1A656905EB450595FBF3F508F101035B
:104F50003B449D4238BF1D46530531D5294600F0DC
:104F600047FB064650B90C23CAF80030A3894FF01E
:104F7000FF3043F04003A381BDE8F0873A46216942
:104F800000F0C4FAA38923F4906343F08003A38163
:104F900026613E44266046466561ED1BA560464598
:104FA00028BF464649463246206800F0BAFAA36850
:104FB00000209B1BA36023681E442660BDE8F08789
:104FC0002A4600F073FB06460028E1D121695046CD
:104FD00000F0C2FAC7E700002DE9F04F9DB003933F
:104FE0008B8980461C060D4616460FD50B696BB99A
:104FF000402100F0FDFA2860286128B90C23C8F888
:1050000000304FF0FF30C4E040236B610023099370
:1050100020238DF8293030234FF0010B8DF82A30F2
:1050200037463C4614F8013B002B3CD1B7EB060A4F
:105030000BD05346324629464046FFF771FF0130F8
:1050400000F0A280099B534409933B78002B00F0A9
:105050009B8000234FF0FF32049307930592069341
:105060008DF853301A9305222178504800F040FA09
:10507000671C049BD8B9D90644BF20228DF8532061
:105080001A0744BF2B228DF8532022782A2A16D0E3
:1050900000210A20079A27463B780134303B092B30
:1050A00050D9C9B111E0252BC0D02746B9E73F4AF6
:1050B0003C46801A0BFA00F018430490D3E7039A99
:1050C000111D12680391002A01DB079204E052428D
:1050D00043F00203079204933B782E2B0DD17B788B
:1050E000791C2A2B32D1039B02371A1D1B680392AD
:1050F000002BB8BF4FF0FF3305932D4C03223978B6
:10510000204600F0F5F938B14023001B03FA00F007
:10511000049B0137034304933978062225487E1CFB
:105120008DF8281000F0E4F9002835D0224BFBB9A7
:10513000039B073323F0070308330393099B4B4476
:1051400009936DE700FB02320121A4E700230A2442
:10515000184605930F463A780131303A092A03D9A7
:10516000002BCAD00590C8E704FB00200123F1E71B
:1051700003AB00932A46114B04A94046AFF30080CD
:10518000B0F1FF3F8146D9D1AB895B063FF539AF1E
:1051900009981DB0BDE8F08F03AB00932A46074B7A
:1051A00004A9404600F084F8EAE700BF3D59000832
:1051B000435900084759000800000000214F00082B
:1051C0002DE9F04791461F468A680B6906469342CF
:1051D000B8BF1346C9F8003091F843200C46DDF8FB
:1051E000208012B10133C9F800302368990642BF0C
:1051F000D9F800300233C9F80030256815F00605EB
:1052000007D104F1190AE368D9F800209B1A9D42DE
:105210002ADB94F843302268003318BF012392063A
:105220002FD404F1430239463046C047013022D022
:105230002368E56803F00603042B18BF0025D9F89E
:1052400000204FF0000908BFAD1AA368226908BF0B
:1052500025EAE5759342C4BF9B1AED181A344D45F3
:105260001BD10020BDE8F087012352463946304665
:10527000C047013003D14FF0FF30BDE8F087013562
:10528000C1E73020E11881F843005A1C94F845101A
:105290002244023382F84310C3E7012322463946F1
:1052A0003046C0470130E6D009F10109D7E70000D8
:1052B0002DE9F04317460A7E85B06E2A98460646C9
:1052C0000C460C9B01F1430E00F0BC801AD8632AF7
:1052D0002ED00AD8002A00F0C880582A00F08A8010
:1052E00004F1420584F842202AE0642A01D0692AA8
:1052F000F6D121681A6811F0800F23D0111D1960B2
:10530000136827E0732A00F0B48008D86F2A2AD0E7
:10531000702AE5D10A6842F020020A6003E0752A8B
:1053200021D0782ADCD178226F4984F8452064E0C6
:105330001A6801F14205111D1960136884F84230A2
:105340000123A3E011F0400F02F104011960D7D04E
:10535000B2F90030002B03DA2D225B4284F843209F
:1053600062490A2217E02068196810F0800F03D004
:10537000081D18600B6806E010F0400F01F10400F2
:105380001860F7D00B886F2A14BF0A2208225749E9
:10539000002084F843006568002DA560C0F29C8061
:1053A000206820F004002060002B3FD1002D40F049
:1053B00095807546082A0BD12368DA0708D523693A
:1053C00062689A42DEBF302305F8013C05F1FF35E3
:1053D000AEEB05032361CDF800803B4603AA2146CE
:1053E0003046FFF7EDFE013055D14FF0FF3005B0EC
:1053F000BDE8F08381F845203C492268186812F026
:10540000800F00F104051D6001D0036802E055061D
:10541000FBD50388D00744BF42F0200222601BB9AD
:10542000226822F0200222601022B1E77546B3FB09
:10543000F2F002FB1033CB5C05F8013D0346002877
:10544000F5D1B7E708681A6810F0800F496904D0F1
:10545000101D18601368196007E010F0400F02F18A
:10546000040018601368F6D0198000237546236184
:10547000B1E71A68111D1960156800216268284695
:1054800000F036F808B1401B6060636823610023B8
:1054900084F843309FE723692A4639463046C0479F
:1054A0000130A2D023689B0707D5002504F1190914
:1054B000E368039A9B1A9D4205DBE068039B9842D0
:1054C000B8BF184693E701234A4639463046C047DD
:1054D00001308AD00135EBE7002BA7D10B7804F11E
:1054E000420584F8423065E75F5900084E590008CC
:1054F00010B5C9B202449042034601D1002010BD4C
:105500001C7801308C42F6D1184610BD10B5431EF0
:105510000A44914200D110BD11F8014B03F8014F2C
:10552000F7E7884210B501EB020303D8421E994207
:105530000CD110BD9842F9D28118D21AD34200D1B1
:1055400010BD13F8014D01F8014DF7E711F8014BBB
:1055500002F8014FEBE7000038B50546002943D0BB
:1055600051F8043C0C1F002BB8BFE41800F0D4F82D
:105570001E4A1368104633B9636014602846BDE8BC
:10558000384000F0CAB8A3420BD921686218934290
:1055900001BF1A685B685218226063600460EDE71F
:1055A00013465A680AB1A242FAD919685818A0429B
:1055B0000BD120680144581882421960DED110686E
:1055C0005268014419605A60D8E702D90C232B6055
:1055D000D4E7206821188A4201BF1168526809186F
:1055E000216062605C60C9E738BD00BFD400002064
:1055F00070B5CD1C25F0030508350C2D38BF0C25E2
:10560000002D064601DBA94203D90C23336000209C
:1056100070BD00F081F8234A1468214691B9224CEC
:1056200023681BB9304600F067F8206029463046F1
:1056300000F062F8431C26D10C233046336000F0A2
:105640006CF8E4E70B685B1B1AD40B2B0FD90B60CB
:10565000CC18CD50304600F060F804F10B00231D4B
:1056600020F00700C31A1BD05A42E25070BD8C4292
:105670000BBF63684B681360636018BF0C46E9E7B3
:105680000C464968CAE7C41C24F00304A04205D0B4
:10569000211A304600F030F80130CDD02560D9E72E
:1056A00070BD00BFD4000020D8000020F8B5074628
:1056B00014460E4621B91146BDE8F840FFF798BFE1
:1056C00022B9FFF749FF25462846F8BD00F026F825
:1056D00084420FD921463846FFF78AFF0546002845
:1056E000F2D031462246FFF711FF31463846FFF728
:1056F00033FFE9E73546E7E738B50023054C0546B3
:105700000846236000F014F8431C02D1236803B15B
:105710002B6038BD3C0700207047704751F8040CDF
:105720000028A0F10400BCBF0B58C018704700004F
:10573000044B0246196809B9034919601868024404
:105740001A607047DC00002040070020F8B500BF59
:10575000F8BC08BC9E467047F8B500BFF8BC08BC52
:045760009E467047AA
:10576400544553542E74787400000000FD2C000836
:105774001D2D00083D2D00085D2D00087D2D00081D
:10578400809A90B68EB78F80D2D3D4D8D7DE8E8F3E
:10579400909292E299E3EAEB59999A9D9C9D9E9F7F
:1057A400B5D6E0E9A5A5A6A7A8A9AAABAC21AEAF3A
:1057B400B0B1B2B3B4B5B6B7B8B9BABBBCBDBEBF6D
:1057C400C0C1C2C3C4C5C7C7C8C9CACBCCCDCECF5C
:1057D400D0D1D2D3D4D5D6D7D8D9DADBDCDDDEDF4D
:1057E400E0E1E2E3E5E5E6E7E7E9EAEBEDEDEEEF3C
:1057F400F0F1F2F3F4F5F6F7F8F9FAFBFCFDFEFF2D
:10580400222A2B2C3A3B3C3D3E3F5B5D7C7F0020B3
:105814002020202020202020202020202020202084
:10582400202900557374617720706172616D65740D
:10583400727920706F6D696172750054727962209B
:10584400706F6D696172753A0077797A772E206E80
:10585400617069656369656D0077797A772E207068
:10586400727A796369736B69656D00437A61732039
:10587400747277616E696120706F6D696172753AD7
:105884000050726F672077797A77616C616E696115
:105894000047647A6965207A617069736163007096
:1058A4006F6D6961722077797A77616C616E7920A6
:1058B4006E617069656369656D00526F7A706F63BC
:1058C4007A6E696A20706F6D6961720054727761D3
:1058D40020706F6D6961722020202020202000201C
:1058E40020202020202020202020202020202020B4
:1058F40020005475206A657374656D202020202073
:10590400202000506F6D696172207A616B6F6E6345
:105914007A6F6E790025640000000000000000002A
:105924000102030406070809000000000102030441
:10593400030406080C10182030232D302B20006897
:105944006C4C006566674546470030313233343568
:1059540036373839414243444546003031323334D6
:0C596400353637383961626364656600CF
:0459700065010008C5
:0459740041010008E5
:1059780001010101010000000100000068FF1F0093
:1059880014000020000000000000000000000000DB
:1059980000000000000000000000000000000000FF
:1059A80000000000000000000000000000000000EF
:1059B80000000000000000000000000000000000DF
:1059C80000000000000000000000000000000000CF
:1059D80000000000000000000000000000000000BF
:0459E80000000000BB
:0400000508004E257C
:00000001FF
